{
  "contractName": "Marketplace",
  "abi": [
    {
      "inputs": [
        {
          "internalType": "address",
          "name": "nftContract",
          "type": "address"
        },
        {
          "internalType": "uint256",
          "name": "tokenId",
          "type": "uint256"
        }
      ],
      "name": "buyNFT",
      "outputs": [],
      "stateMutability": "payable",
      "type": "function"
    },
    {
      "inputs": [
        {
          "internalType": "address",
          "name": "nftContract1",
          "type": "address"
        },
        {
          "internalType": "uint256",
          "name": "tokenId1",
          "type": "uint256"
        },
        {
          "internalType": "address",
          "name": "nftContract2",
          "type": "address"
        },
        {
          "internalType": "uint256",
          "name": "tokenId2",
          "type": "uint256"
        }
      ],
      "name": "exchangeNFT",
      "outputs": [],
      "stateMutability": "nonpayable",
      "type": "function"
    }
  ],
  "bytecode": "0x608060405234801561001057600080fd5b506105c8806100206000396000f3fe6080604052600436106100295760003560e01c8063a3c70c3a1461002e578063a82ba76f14610057575b600080fd5b34801561003a57600080fd5b5061005560048036038101906100509190610439565b610073565b005b610071600480360381019061006c91906104a0565b610261565b005b6000849050600083905060008273ffffffffffffffffffffffffffffffffffffffff16636352211e876040518263ffffffff1660e01b81526004016100b891906104ef565b602060405180830381865afa1580156100d5573d6000803e3d6000fd5b505050506040513d601f19601f820116820180604052508101906100f9919061051f565b905060008273ffffffffffffffffffffffffffffffffffffffff16636352211e866040518263ffffffff1660e01b815260040161013691906104ef565b602060405180830381865afa158015610153573d6000803e3d6000fd5b505050506040513d601f19601f82011682018060405250810190610177919061051f565b90508373ffffffffffffffffffffffffffffffffffffffff166342842e0e30838a6040518463ffffffff1660e01b81526004016101b69392919061055b565b600060405180830381600087803b1580156101d057600080fd5b505af11580156101e4573d6000803e3d6000fd5b505050508273ffffffffffffffffffffffffffffffffffffffff166342842e0e3084886040518463ffffffff1660e01b81526004016102259392919061055b565b600060405180830381600087803b15801561023f57600080fd5b505af1158015610253573d6000803e3d6000fd5b505050505050505050505050565b600082905060008173ffffffffffffffffffffffffffffffffffffffff16636352211e846040518263ffffffff1660e01b81526004016102a191906104ef565b602060405180830381865afa1580156102be573d6000803e3d6000fd5b505050506040513d601f19601f820116820180604052508101906102e2919061051f565b90508073ffffffffffffffffffffffffffffffffffffffff166108fc349081150290604051600060405180830381858888f1935050505015801561032a573d6000803e3d6000fd5b508173ffffffffffffffffffffffffffffffffffffffff166342842e0e3033866040518463ffffffff1660e01b81526004016103689392919061055b565b600060405180830381600087803b15801561038257600080fd5b505af1158015610396573d6000803e3d6000fd5b5050505050505050565b600080fd5b600073ffffffffffffffffffffffffffffffffffffffff82169050919050565b60006103d0826103a5565b9050919050565b6103e0816103c5565b81146103eb57600080fd5b50565b6000813590506103fd816103d7565b92915050565b6000819050919050565b61041681610403565b811461042157600080fd5b50565b6000813590506104338161040d565b92915050565b60008060008060808587031215610453576104526103a0565b5b6000610461878288016103ee565b945050602061047287828801610424565b9350506040610483878288016103ee565b925050606061049487828801610424565b91505092959194509250565b600080604083850312156104b7576104b66103a0565b5b60006104c5858286016103ee565b92505060206104d685828601610424565b9150509250929050565b6104e981610403565b82525050565b600060208201905061050460008301846104e0565b92915050565b600081519050610519816103d7565b92915050565b600060208284031215610535576105346103a0565b5b60006105438482850161050a565b91505092915050565b610555816103c5565b82525050565b6000606082019050610570600083018661054c565b61057d602083018561054c565b61058a60408301846104e0565b94935050505056fea26469706673582212201f289fbb851d99b4cf6b8830c2e5cedbfaf6873d0703a60635c06754467390c564736f6c634300080d0033",
  "immutableReferences": {},
  "source": "// SPDX-License-Identifier: MIT\r\npragma solidity ^0.8.0;\r\nimport \"@openzeppelin/contracts/token/ERC721/IERC721.sol\";\r\n\r\ncontract Marketplace {\r\n\r\n    function buyNFT(address nftContract, uint256 tokenId) public payable {\r\n        IERC721 nft = IERC721(nftContract);\r\n        address payable seller = payable(nft.ownerOf(tokenId));\r\n\r\n        seller.transfer(msg.value);\r\n        nft.safeTransferFrom(address(this), msg.sender, tokenId);\r\n    }\r\n\r\n    function exchangeNFT(address nftContract1, uint256 tokenId1, address nftContract2, uint256 tokenId2) public {\r\n        IERC721 nft1 = IERC721(nftContract1);\r\n        IERC721 nft2 = IERC721(nftContract2);\r\n\r\n        address firstExchanger = nft1.ownerOf(tokenId1);\r\n        address secondExchanger = nft2.ownerOf(tokenId2);\r\n\r\n        nft1.safeTransferFrom(address(this), secondExchanger, tokenId1);\r\n        nft2.safeTransferFrom(address(this), firstExchanger, tokenId2);\r\n\r\n    }\r\n}",
  "sourcePath": "C:\\Users\\franc\\Documents\\Universit\\Tesi\\TruffleTesting\\contracts\\Marketplace.sol",
  "compiler": {
    "name": "solc",
    "version": "0.8.13+commit.abaa5c0e.Emscripten.clang"
  },
  "schemaVersion": "3.4.7",
  "updatedAt": "2022-05-17T21:05:40.547Z",
  "devdoc": {
    "kind": "dev",
    "methods": {},
    "version": 1
  },
  "userdoc": {
    "kind": "user",
    "methods": {},
    "version": 1
  }
}