{
  "_format": "hh-sol-artifact-1",
  "contractName": "Marketplace",
  "sourceName": "contracts/Marketplace.sol",
  "abi": [
    {
      "inputs": [
        {
          "internalType": "address",
          "name": "nftContract",
          "type": "address"
        },
        {
          "internalType": "uint256",
          "name": "tokenId",
          "type": "uint256"
        }
      ],
      "name": "buyNFT",
      "outputs": [],
      "stateMutability": "payable",
      "type": "function"
    },
    {
      "inputs": [
        {
          "internalType": "address",
          "name": "nftContract1",
          "type": "address"
        },
        {
          "internalType": "uint256",
          "name": "tokenId1",
          "type": "uint256"
        },
        {
          "internalType": "address",
          "name": "nftContract2",
          "type": "address"
        },
        {
          "internalType": "uint256",
          "name": "tokenId2",
          "type": "uint256"
        }
      ],
      "name": "exchangeNFT",
      "outputs": [],
      "stateMutability": "nonpayable",
      "type": "function"
    }
  ],
  "bytecode": "0x608060405234801561001057600080fd5b5061098a806100206000396000f3fe6080604052600436106100295760003560e01c8063a3c70c3a1461002e578063a82ba76f14610057575b600080fd5b34801561003a57600080fd5b506100556004803603810190610050919061071e565b610073565b005b610071600480360381019061006c91906106e2565b610436565b005b600084905060008390503073ffffffffffffffffffffffffffffffffffffffff168273ffffffffffffffffffffffffffffffffffffffff1663081812fc876040518263ffffffff1660e01b81526004016100cd919061085f565b60206040518083038186803b1580156100e557600080fd5b505afa1580156100f9573d6000803e3d6000fd5b505050506040513d601f19601f8201168201806040525081019061011d91906106b9565b73ffffffffffffffffffffffffffffffffffffffff161415806101f457503073ffffffffffffffffffffffffffffffffffffffff168173ffffffffffffffffffffffffffffffffffffffff1663081812fc856040518263ffffffff1660e01b815260040161018b919061085f565b60206040518083038186803b1580156101a357600080fd5b505afa1580156101b7573d6000803e3d6000fd5b505050506040513d601f19601f820116820180604052508101906101db91906106b9565b73ffffffffffffffffffffffffffffffffffffffff1614155b15610234576040517f08c379a000000000000000000000000000000000000000000000000000000000815260040161022b9061083f565b60405180910390fd5b60008273ffffffffffffffffffffffffffffffffffffffff16636352211e876040518263ffffffff1660e01b815260040161026f919061085f565b60206040518083038186803b15801561028757600080fd5b505afa15801561029b573d6000803e3d6000fd5b505050506040513d601f19601f820116820180604052508101906102bf91906106b9565b905060008273ffffffffffffffffffffffffffffffffffffffff16636352211e866040518263ffffffff1660e01b81526004016102fc919061085f565b60206040518083038186803b15801561031457600080fd5b505afa158015610328573d6000803e3d6000fd5b505050506040513d601f19601f8201168201806040525081019061034c91906106b9565b90508373ffffffffffffffffffffffffffffffffffffffff166342842e0e83838a6040518463ffffffff1660e01b815260040161038b93929190610808565b600060405180830381600087803b1580156103a557600080fd5b505af11580156103b9573d6000803e3d6000fd5b505050508273ffffffffffffffffffffffffffffffffffffffff166342842e0e8284886040518463ffffffff1660e01b81526004016103fa93929190610808565b600060405180830381600087803b15801561041457600080fd5b505af1158015610428573d6000803e3d6000fd5b505050505050505050505050565b60008290503073ffffffffffffffffffffffffffffffffffffffff168173ffffffffffffffffffffffffffffffffffffffff1663081812fc846040518263ffffffff1660e01b815260040161048b919061085f565b60206040518083038186803b1580156104a357600080fd5b505afa1580156104b7573d6000803e3d6000fd5b505050506040513d601f19601f820116820180604052508101906104db91906106b9565b73ffffffffffffffffffffffffffffffffffffffff1614610531576040517f08c379a00000000000000000000000000000000000000000000000000000000081526004016105289061083f565b60405180910390fd5b60008173ffffffffffffffffffffffffffffffffffffffff16636352211e846040518263ffffffff1660e01b815260040161056c919061085f565b60206040518083038186803b15801561058457600080fd5b505afa158015610598573d6000803e3d6000fd5b505050506040513d601f19601f820116820180604052508101906105bc91906106b9565b90508073ffffffffffffffffffffffffffffffffffffffff166108fc349081150290604051600060405180830381858888f19350505050158015610604573d6000803e3d6000fd5b508173ffffffffffffffffffffffffffffffffffffffff166342842e0e8233866040518463ffffffff1660e01b8152600401610642939291906107d1565b600060405180830381600087803b15801561065c57600080fd5b505af1158015610670573d6000803e3d6000fd5b5050505050505050565b60008135905061068981610926565b92915050565b60008151905061069e81610926565b92915050565b6000813590506106b38161093d565b92915050565b6000602082840312156106cb57600080fd5b60006106d98482850161068f565b91505092915050565b600080604083850312156106f557600080fd5b60006107038582860161067a565b9250506020610714858286016106a4565b9150509250929050565b6000806000806080858703121561073457600080fd5b60006107428782880161067a565b9450506020610753878288016106a4565b93505060406107648782880161067a565b9250506060610775878288016106a4565b91505092959194509250565b61078a816108c7565b82525050565b6107998161088b565b82525050565b60006107ac600c8361087a565b91506107b7826108fd565b602082019050919050565b6107cb816108bd565b82525050565b60006060820190506107e66000830186610781565b6107f36020830185610790565b61080060408301846107c2565b949350505050565b600060608201905061081d6000830186610790565b61082a6020830185610790565b61083760408301846107c2565b949350505050565b600060208201905081810360008301526108588161079f565b9050919050565b600060208201905061087460008301846107c2565b92915050565b600082825260208201905092915050565b60006108968261089d565b9050919050565b600073ffffffffffffffffffffffffffffffffffffffff82169050919050565b6000819050919050565b60006108d2826108d9565b9050919050565b60006108e4826108eb565b9050919050565b60006108f68261089d565b9050919050565b7f4e6f7420617070726f7665640000000000000000000000000000000000000000600082015250565b61092f8161088b565b811461093a57600080fd5b50565b610946816108bd565b811461095157600080fd5b5056fea2646970667358221220cfc18a36a229dedeabb19e7e9c770afb96dd9e591d28cbc102e1ebd2b511fe0264736f6c63430008010033",
  "linkReferences": {},
  "deployedLinkReferences": {}
}